{
  "contractName": "ContractB",
  "abi": [
    {
      "inputs": [
        {
          "internalType": "address",
          "name": "_meuToken",
          "type": "address"
        }
      ],
      "stateMutability": "nonpayable",
      "type": "constructor"
    },
    {
      "inputs": [
        {
          "internalType": "uint256",
          "name": "amount",
          "type": "uint256"
        }
      ],
      "name": "deposit1",
      "outputs": [],
      "stateMutability": "nonpayable",
      "type": "function"
    },
    {
      "inputs": [
        {
          "internalType": "uint256",
          "name": "amount",
          "type": "uint256"
        }
      ],
      "name": "withdraw1",
      "outputs": [],
      "stateMutability": "nonpayable",
      "type": "function"
    }
  ],
  "bytecode": "0x608060405234801561001057600080fd5b5060405161048b38038061048b8339818101604052810190610032919061008d565b806000806101000a81548173ffffffffffffffffffffffffffffffffffffffff021916908373ffffffffffffffffffffffffffffffffffffffff160217905550506100ff565b600081519050610087816100e8565b92915050565b60006020828403121561009f57600080fd5b60006100ad84828501610078565b91505092915050565b60006100c1826100c8565b9050919050565b600073ffffffffffffffffffffffffffffffffffffffff82169050919050565b6100f1816100b6565b81146100fc57600080fd5b50565b61037d8061010e6000396000f3fe608060405234801561001057600080fd5b50600436106100365760003560e01c80630f87a0441461003b5780639fabbd4b14610057575b600080fd5b6100556004803603810190610050919061022a565b610073565b005b610071600480360381019061006c919061022a565b610124565b005b60008054906101000a900473ffffffffffffffffffffffffffffffffffffffff1673ffffffffffffffffffffffffffffffffffffffff1663a9059cbb33836040518363ffffffff1660e01b81526004016100ce9291906102a8565b602060405180830381600087803b1580156100e857600080fd5b505af11580156100fc573d6000803e3d6000fd5b505050506040513d601f19601f820116820180604052508101906101209190610201565b5050565b60008054906101000a900473ffffffffffffffffffffffffffffffffffffffff1673ffffffffffffffffffffffffffffffffffffffff166323b872dd3330846040518463ffffffff1660e01b815260040161018193929190610271565b602060405180830381600087803b15801561019b57600080fd5b505af11580156101af573d6000803e3d6000fd5b505050506040513d601f19601f820116820180604052508101906101d39190610201565b5050565b6000815190506101e681610319565b92915050565b6000813590506101fb81610330565b92915050565b60006020828403121561021357600080fd5b6000610221848285016101d7565b91505092915050565b60006020828403121561023c57600080fd5b600061024a848285016101ec565b91505092915050565b61025c816102d1565b82525050565b61026b8161030f565b82525050565b60006060820190506102866000830186610253565b6102936020830185610253565b6102a06040830184610262565b949350505050565b60006040820190506102bd6000830185610253565b6102ca6020830184610262565b9392505050565b60006102dc826102ef565b9050919050565b60008115159050919050565b600073ffffffffffffffffffffffffffffffffffffffff82169050919050565b6000819050919050565b610322816102e3565b811461032d57600080fd5b50565b6103398161030f565b811461034457600080fd5b5056fea2646970667358221220fa14ff35a1d1c7f84966a8c344d34e3340a72f1c7508edc71e87cc5e190e408564736f6c63430008000033",
  "immutableReferences": {},
  "source": "// SPDX-License-Identifier: MIT\npragma solidity >=0.4.22 <0.9.0;\n\nimport \"node_modules/@openzeppelin/contracts/token/ERC20/IERC20.sol\";\n\ncontract ContractB {\n    IERC20 meuToken;\n\n    constructor(address _meuToken) {\n        meuToken = IERC20(_meuToken);\n    }\n\n    function deposit1(uint256 amount) external {\n        meuToken.transferFrom(msg.sender, address(this), amount);\n    }\n\n    function withdraw1(uint256 amount) external {\n        meuToken.transfer(msg.sender, amount);\n    }\n}\n",
  "sourcePath": "/Volumes/APPLE HDD/reactprojects/borrow/contracts/ContractB.sol",
  "compiler": {
    "name": "solc",
    "version": "0.8.0+commit.c7dfd78e.Emscripten.clang"
  },
  "schemaVersion": "3.3.4",
  "updatedAt": "2021-07-27T16:45:33.743Z",
  "devdoc": {
    "kind": "dev",
    "methods": {},
    "version": 1
  },
  "userdoc": {
    "kind": "user",
    "methods": {},
    "version": 1
  }
}