{
  "contractName": "ContractA",
  "abi": [
    {
      "inputs": [
        {
          "internalType": "address",
          "name": "t1",
          "type": "address"
        },
        {
          "internalType": "address",
          "name": "t2",
          "type": "address"
        },
        {
          "internalType": "address",
          "name": "t3",
          "type": "address"
        }
      ],
      "stateMutability": "nonpayable",
      "type": "constructor"
    },
    {
      "inputs": [],
      "name": "T1",
      "outputs": [
        {
          "internalType": "contract IERC20",
          "name": "",
          "type": "address"
        }
      ],
      "stateMutability": "view",
      "type": "function",
      "constant": true
    },
    {
      "inputs": [],
      "name": "T2",
      "outputs": [
        {
          "internalType": "contract ITk2",
          "name": "",
          "type": "address"
        }
      ],
      "stateMutability": "view",
      "type": "function",
      "constant": true
    },
    {
      "inputs": [],
      "name": "T3",
      "outputs": [
        {
          "internalType": "contract ITk3",
          "name": "",
          "type": "address"
        }
      ],
      "stateMutability": "view",
      "type": "function",
      "constant": true
    },
    {
      "inputs": [
        {
          "internalType": "uint256",
          "name": "amount",
          "type": "uint256"
        }
      ],
      "name": "swap",
      "outputs": [],
      "stateMutability": "nonpayable",
      "type": "function"
    },
    {
      "inputs": [
        {
          "internalType": "uint256",
          "name": "amount",
          "type": "uint256"
        }
      ],
      "name": "withdraw",
      "outputs": [],
      "stateMutability": "nonpayable",
      "type": "function"
    }
  ],
  "bytecode": "0x608060405234801561001057600080fd5b50604051610d90380380610d9083398181016040528101906100329190610111565b826000806101000a81548173ffffffffffffffffffffffffffffffffffffffff021916908373ffffffffffffffffffffffffffffffffffffffff16021790555081600160006101000a81548173ffffffffffffffffffffffffffffffffffffffff021916908373ffffffffffffffffffffffffffffffffffffffff16021790555080600260006101000a81548173ffffffffffffffffffffffffffffffffffffffff021916908373ffffffffffffffffffffffffffffffffffffffff1602179055505050506101a9565b60008151905061010b81610192565b92915050565b60008060006060848603121561012657600080fd5b6000610134868287016100fc565b9350506020610145868287016100fc565b9250506040610156868287016100fc565b9150509250925092565b600061016b82610172565b9050919050565b600073ffffffffffffffffffffffffffffffffffffffff82169050919050565b61019b81610160565b81146101a657600080fd5b50565b610bd8806101b86000396000f3fe608060405234801561001057600080fd5b50600436106100575760003560e01c80632e1a7d4d1461005c57806331081d7e1461007857806384c9ad6e1461009657806394b918de146100b4578063a11efef4146100d0575b600080fd5b610076600480360381019061007191906108a2565b6100ee565b005b6100806100f1565b60405161008d9190610a59565b60405180910390f35b61009e610117565b6040516100ab9190610a3e565b60405180910390f35b6100ce60048036038101906100c991906108a2565b61013d565b005b6100d8610816565b6040516100e59190610a23565b60405180910390f35b50565b600260009054906101000a900473ffffffffffffffffffffffffffffffffffffffff1681565b600160009054906101000a900473ffffffffffffffffffffffffffffffffffffffff1681565b670de0b6b3a764000060008054906101000a900473ffffffffffffffffffffffffffffffffffffffff1673ffffffffffffffffffffffffffffffffffffffff1663dd62ed3e33306040518363ffffffff1660e01b81526004016101a192919061099a565b60206040518083038186803b1580156101b957600080fd5b505afa1580156101cd573d6000803e3d6000fd5b505050506040513d601f19601f820116820180604052508101906101f191906108cb565b146101fb57600080fd5b60008054906101000a900473ffffffffffffffffffffffffffffffffffffffff1673ffffffffffffffffffffffffffffffffffffffff166323b872dd3330846040518463ffffffff1660e01b8152600401610258939291906109c3565b602060405180830381600087803b15801561027257600080fd5b505af1158015610286573d6000803e3d6000fd5b505050506040513d601f19601f820116820180604052508101906102aa9190610879565b5060008054906101000a900473ffffffffffffffffffffffffffffffffffffffff1673ffffffffffffffffffffffffffffffffffffffff1663095ea7b3600160009054906101000a900473ffffffffffffffffffffffffffffffffffffffff16836040518363ffffffff1660e01b81526004016103289291906109fa565b602060405180830381600087803b15801561034257600080fd5b505af1158015610356573d6000803e3d6000fd5b505050506040513d601f19601f8201168201806040525081019061037a9190610879565b50600160009054906101000a900473ffffffffffffffffffffffffffffffffffffffff1673ffffffffffffffffffffffffffffffffffffffff166357915897826040518263ffffffff1660e01b81526004016103d69190610a94565b600060405180830381600087803b1580156103f057600080fd5b505af1158015610404573d6000803e3d6000fd5b50505050670de0b6b3a7640000600160009054906101000a900473ffffffffffffffffffffffffffffffffffffffff1673ffffffffffffffffffffffffffffffffffffffff166370a08231306040518263ffffffff1660e01b815260040161046c919061097f565b60206040518083038186803b15801561048457600080fd5b505afa158015610498573d6000803e3d6000fd5b505050506040513d601f19601f820116820180604052508101906104bc91906108cb565b146104fc576040517f08c379a00000000000000000000000000000000000000000000000000000000081526004016104f390610a74565b60405180910390fd5b600260009054906101000a900473ffffffffffffffffffffffffffffffffffffffff1673ffffffffffffffffffffffffffffffffffffffff16633962a5736040518163ffffffff1660e01b8152600401600060405180830381600087803b15801561056657600080fd5b505af115801561057a573d6000803e3d6000fd5b50505050600260009054906101000a900473ffffffffffffffffffffffffffffffffffffffff1673ffffffffffffffffffffffffffffffffffffffff1663a9059cbb33600260009054906101000a900473ffffffffffffffffffffffffffffffffffffffff1673ffffffffffffffffffffffffffffffffffffffff166370a08231306040518263ffffffff1660e01b8152600401610618919061097f565b60206040518083038186803b15801561063057600080fd5b505afa158015610644573d6000803e3d6000fd5b505050506040513d601f19601f8201168201806040525081019061066891906108cb565b6040518363ffffffff1660e01b81526004016106859291906109fa565b602060405180830381600087803b15801561069f57600080fd5b505af11580156106b3573d6000803e3d6000fd5b505050506040513d601f19601f820116820180604052508101906106d79190610879565b50600160009054906101000a900473ffffffffffffffffffffffffffffffffffffffff1673ffffffffffffffffffffffffffffffffffffffff166342966c68826040518263ffffffff1660e01b81526004016107339190610a94565b600060405180830381600087803b15801561074d57600080fd5b505af1158015610761573d6000803e3d6000fd5b5050505060008054906101000a900473ffffffffffffffffffffffffffffffffffffffff1673ffffffffffffffffffffffffffffffffffffffff1663a9059cbb33836040518363ffffffff1660e01b81526004016107c09291906109fa565b602060405180830381600087803b1580156107da57600080fd5b505af11580156107ee573d6000803e3d6000fd5b505050506040513d601f19601f820116820180604052508101906108129190610879565b5050565b60008054906101000a900473ffffffffffffffffffffffffffffffffffffffff1681565b60008151905061084981610b74565b92915050565b60008135905061085e81610b8b565b92915050565b60008151905061087381610b8b565b92915050565b60006020828403121561088b57600080fd5b60006108998482850161083a565b91505092915050565b6000602082840312156108b457600080fd5b60006108c28482850161084f565b91505092915050565b6000602082840312156108dd57600080fd5b60006108eb84828501610864565b91505092915050565b6108fd81610ac0565b82525050565b61090c81610b08565b82525050565b61091b81610b2c565b82525050565b61092a81610b50565b82525050565b600061093d601283610aaf565b91507f62616c616e6365206e6f7420656e6f75676800000000000000000000000000006000830152602082019050919050565b61097981610afe565b82525050565b600060208201905061099460008301846108f4565b92915050565b60006040820190506109af60008301856108f4565b6109bc60208301846108f4565b9392505050565b60006060820190506109d860008301866108f4565b6109e560208301856108f4565b6109f26040830184610970565b949350505050565b6000604082019050610a0f60008301856108f4565b610a1c6020830184610970565b9392505050565b6000602082019050610a386000830184610903565b92915050565b6000602082019050610a536000830184610912565b92915050565b6000602082019050610a6e6000830184610921565b92915050565b60006020820190508181036000830152610a8d81610930565b9050919050565b6000602082019050610aa96000830184610970565b92915050565b600082825260208201905092915050565b6000610acb82610ade565b9050919050565b60008115159050919050565b600073ffffffffffffffffffffffffffffffffffffffff82169050919050565b6000819050919050565b6000610b1382610b1a565b9050919050565b6000610b2582610ade565b9050919050565b6000610b3782610b3e565b9050919050565b6000610b4982610ade565b9050919050565b6000610b5b82610b62565b9050919050565b6000610b6d82610ade565b9050919050565b610b7d81610ad2565b8114610b8857600080fd5b50565b610b9481610afe565b8114610b9f57600080fd5b5056fea2646970667358221220e6bf8ec0787cb2f36c0d0c0a9615bc97bf3670f9cb909ae3cbb81116f6895f9f64736f6c63430008000033",
  "immutableReferences": {},
  "source": "// SPDX-License-Identifier: MIT\npragma solidity >=0.4.22 <0.9.0;\n\nimport \"node_modules/@openzeppelin/contracts/token/ERC20/IERC20.sol\";\n\n// import \"contracts/ContractB.sol\";\n\ninterface Teste {\n\n}\n\ninterface ITk2 is IERC20 {\n    function faucet(uint256 amount) external;\n\n    function burn(uint256 amount) external;\n\n    function transferir(uint256 amount) external;\n}\n\ninterface ITk3 is IERC20 {\n    function buyit() external;\n}\n\ncontract ContractA {\n    IERC20 public T1;\n    // IERC20 public T2;\n    ITk2 public T2;\n    ITk3 public T3;\n\n    constructor(\n        address t1,\n        address t2,\n        address t3\n    ) {\n        T1 = IERC20(t1);\n        T2 = ITk2(t2);\n        T3 = ITk3(t3);\n    }\n\n    function swap(uint256 amount) external {\n        //first approve this contract from js\n        require(T1.allowance(msg.sender, address(this)) == 1 ether);\n        T1.transferFrom(msg.sender, address(this), amount);\n        T1.approve(address(T2), amount);\n        T2.faucet(amount);\n        //do arbitrage here\n        require(T2.balanceOf(address(this)) == 1 ether, \"balance not enough\");\n        T3.buyit();\n        T3.transfer(msg.sender, T3.balanceOf(address(this)));\n        T2.burn(amount);\n        T1.transfer(msg.sender, amount);\n    }\n\n    function withdraw(uint256 amount) external {\n        // meuToken.transfer(msg.sender, amount);\n    }\n}\n",
  "sourcePath": "/Volumes/APPLE HDD/reactprojects/borrow/contracts/ContractA.sol",
  "compiler": {
    "name": "solc",
    "version": "0.8.0+commit.c7dfd78e.Emscripten.clang"
  },
  "schemaVersion": "3.3.4",
  "updatedAt": "2021-07-27T16:48:51.499Z",
  "networkType": "ethereum",
  "devdoc": {
    "kind": "dev",
    "methods": {},
    "version": 1
  },
  "userdoc": {
    "kind": "user",
    "methods": {},
    "version": 1
  }
}